:020000040000fa
:080000000001040000000000f3
:020000040000fa
:100008009a0100009a0100009a0100009a0100007c
:100018009a0100009a0100009a0100009a0100006c
:100028009a0100009a0100009a0100009a0100005c
:100038009a0100009a0100009a0100009a0100004c
:100048009a0100009a0100009a010000680200006d
:100058009a0100009a0100009a0100009a0100002c
:100068009a0100009a0100009a0100009a0100001c
:100078009a0100009a0100009a0100009a0100000c
:100088009a0100009a0100009a0100009a010000fc
:100098009a0100009a0100009a0100009a010000ec
:1000a8009a0100009a0100009a0100009a010000dc
:1000b8009a0100009a0100009a0100009a010000cc
:1000c8009a0100009a0100009a0100009a010000bc
:1000d8009a0100009a0100009a0100009a010000ac
:1000e8009a0100009a0100009a0100009a0100009c
:0800f8009a0100009a010000ca
:020000040000fa
:100108009a0100009a0100009a0100009a0100007b
:100118009a0100009a0100009a0100009a0100006b
:100128009a0100009a0100009a0100009a0100005b
:100138009a0100009a0100009a0100009a0100004b
:100148009a0100009a0100009a010000680200006c
:100158009a0100009a0100009a0100009a0100002b
:100168009a0100009a0100009a0100009a0100001b
:100178009a0100009a0100009a0100009a0100000b
:100188009a0100009a0100009a0100009a010000fb
:100198009a0100009a0100009a0100009a010000eb
:1001a8009a0100009a0100009a0100009a010000db
:1001b8009a0100009a0100009a0100009a010000cb
:1001c8009a0100009a0100009a0100009a010000bb
:1001d8009a0100009a0100009a0100009a010000ab
:1001e8009a0100009a0100009a0100009a0100009b
:0801f8009a0100009a010000c9
:020000040000fa
:100200000f8020000eb720000e01880000000000c3
:10021000000020000000e000020032000001200089
:10022000200288000c000700004820000100200088
:1002300011000700000020000000e0000200320072
:10024000000002000000000098030200000000000f
:100250000040da000000fe004440a9000000200039
:100260000000e0000300320000002000a001880030
:100270004440a8000000060091018800800078003a
:100280000000eb0015003700e280400032a0b4000f
:100290009101ba00e280400032a0b4009102ba009d
:1002a000e280400032a0b4000002eb00472bde00e9
:1002b000f507b200602ce10004003a000059eb00a1
:1002c0008301e900fdff3e00040037006128e100e2
:1002d000010032000082eb00040007001101ba00a7
:1002e0000200e000e8ff3a00000006003159ba00c1
:1002f0008301e9000c0032002159ba008301e900b2
:10030000080032000400e00003003a00e2804000f0
:1003100032a0b400f5ff370011d9ba008301e9001b
:10032000faff3a008100e800e180400032a0b4000a
:0c033000000006000040da000000fe00a3
:020000040000fa
:10033c000200fa00000f78001e02780044a2de00d2
:10034c00040f78001e0278000442780061426200bb
:10035c000482fb006102620056168000e5ff2f004c
:10036c008502630005027200541688001e02780094
:10037c000482d10004427800614262000482fb00d6
:10038c00610262000402420056168000d5ff2f0065
:10039c008502630005027200541688001e02780064
:1003ac0042a2de0004427800614262000482fb003b
:1003bc00610262004222dd0056168000b5ff2f005c
:1003cc008502630005027200541688001e02780034
:1003dc0043a2de0004427800614262000482fb000a
:1003ec00610262004322dd005616800075ff2f006b
:1003fc008502630005027200541688001e02780004
:10040c0044a2de0004427800614262000482fb00d8
:10041c00610262004e22dd0086168000f5ff2b0083
:10042c008502630005027200841688001e027800a3
:10043c0045a2de0004427800614262000482fb00a7
:10044c00610262004d22dd0086168000f5ff2d0052
:10045c008502630005027200841688001e02780073
:10046c0046a2de0004427800614262000482fb0076
:10047c00610262004522dd0056168000f5fd2f005a
:10048c008502630005027200541688001e02780073
:10049c0047a2de0004427800614262000482fb0045
:1004ac00610262004422dd0056168000f5fe2f002a
:1004bc008502630005027200541688000080fa0061
:1004cc00000006003600f800809fbe00829fbe0030
:1004dc00849fbe00869fbe003400f8000000200000
:1004ec00a00188000000fa00a416800061026200de
:1004fc0004f0a7000402ea000402e9004f22de0027
:10050c00044278000482fb0061026200a61680009f
:10051c00e5ff2f008502630005027200a416880017
:10052c0004148000845e88001300200002be2000aa
:10053c0001bd200000bf20007d0007007516800063
:10054c000400280004826200e00f52000400320014
:10055c00845e80000402ea00045f88000300370018
:10056c00045f80000402ea00045f8800045f8000de
:10057c00040078006eff07008560a9000080fa0077
:10058c003400f9004f03be004f02be004f01be0005
:10059c004f00be003600f900004006000000fa00d3
:1005ac000082eb0044158800a8e2a9000002eb00d1
:1005bc0054158800aae2a80004fc2f003416880009
:1005cc00cda2a900cdc2a900cde2a800d202a900fb
:1005dc001221a900940880000440a1000450a1003d
:1005ec009408880012c1a90013a1a9001061a900e8
:1005fc0044b8200074088800a1e2a900a1a2a800b8
:10060c00041580000480a1000490a100041588004a
:10061c00041580000450a1000460a0000470a10027
:10062c0004158800a042a8001415800004d0a00076
:10063c0004e0a00004f0a00014158800a342a90057
:10064c00141580000420a1000430a1000440a10076
:10065c000450a100141588002515800004fc2f00ff
:10066c008482620024032000050272002415880095
:10067c00a4e2a90025158000f40f2e0084826200ec
:10068c000410200005027200241588003415800027
:10069c000400a0000410a0000420a0000430a1005d
:1006ac003415880081e0a9008d60a800c404800086
:1006bc0004c0a10004d0a00004e0a000c404880081
:1006cc000002eb00845e88000002eb00045f8800ef
:1006dc000002eb00e45e880009003700e45e800055
:1006ec008402420024bd2000048242008002eb0000
:1006fc00050a7800e45e80000402e800e45e8800ed
:10070c00e45e8000e40f5200f4ff340013e1a80013
:10071c00a1e2a80000bf20003c0007000080fa0006
:10072c00000006000000fa009cff0700ffff3700e6
:10073c004600f800881f78008a1f78004800f800ef
:10074c004a00f8004c00f8004e00f8004400f80095
:10075c003400f8003005900008f02f000a40e1004a
:10076c0003003200480b2000aa018800010037006a
:10077c00080b2000280288002004900058028800f2
:10078c001004900048028800500590007a028800fe
:10079c00400590006a02880000029000630252003b
:1007ac008a0a2c003a0288008301e9006005900057
:1007bc000380080006000000310d78004618c300c5
:1007cc00048009004618c4004218c4001201c40079
:1007dc003200cd006a0098004620ef0000000000b7
:1007ec003400f9004400f9004e00f9004c00f90007
:1007fc004a00f9004800f9004f0578004f047800d2
:10080c004600f9000000000000000600c000900047
:10081c00000090000000e900008009008018eb0047
:04082c0000000600c2
:020000040000fa
:10084000a6f10000952300003d4d00009523000017
:10085000a6f1000000000000000000000000000001
:020000040000fa
:10088000140400007f040000d9ff000086f9000076
:1008900013f800002800000017100000f31f0000ec
:1008a00093260000f31f000017100000280000002e
:1008b00013f8000086f90000d9ff00007f04000053
:1008c0001404000000000000000000000000000010
:1008d0000000000000000000000000000000000018
:1008e0000000000000000000000000000000000008
:1008f00000000000000000000000000000000000f8
:020000040000fa
:10090000d00b00001200000000000000e20b00000d
:100910000e00000002000000050020008429840071
:100920000000c0000bc90b00c00b0000c00b000092
:100930001000000000000000f00b00000e0000009e
:10094000020000001100400084618400000080006b
:100950000ba10b00800b0000800b0000400000008a
:0809600000000000000000008f
:020000040000fa
:0200000401f009
:04000000eabf000053
:020000040000fa
:0200000401f009
:04000400ff7f00007a
:020000040000fa
:0200000401f009
:04000800fcff0000f9
:020000040000fa
:0200000401f009
:04001400ffff0000ea
:020000040000fa
:0200000401f009
:04001800ffff0000e6
:00000001FF
