:08000000803102288731FD2F39
:100D2600F00070082400910014180800972E230084
:100D36008C018D018E0121001908873960389900D0
:100D46000800F10020000E138E140D127108863172
:100D5600932620000E170800F10020000E138E14B3
:100D66000D1671088631932620000E170800210003
:100D76000E130D138E138E100D1220000E178E14E7
:100D86000D12240094131413151695161508F03930
:100D9600023895000800F4007408F3000430F336B6
:100DA600890BD22E7308103E8631A426863174082C
:100DB6000F398631A426863172080F39B03E863146
:100DC600A4260800F7010830770203180E2F7708CB
:100DD600F5007508F20000308631CE2686312000F7
:100DE6000E130D16F601803076020318062F00301A
:100DF6008631932686310130F5007508F607803076
:100E06007602031CFA2E0130F5007508F707083044
:100E16007702031CEA2EF20100308631CE26080046
:100E26002000A10108302102031808002108F7005C
:100E36007708F20000308631CE26873120000E1367
:100E46000D16A0018030200203184D2F2008F70050
:100E5600F8012108F900FA010730F935FA0D890B76
:100E6600302F77087907FB0078087A3DFC00750873
:100E76007B07840076087C3D850000088631932632
:100E860087310130F70077082000A0078030200264
:100E9600031C292F0130F7007708A107152F86318B
:100EA6009A2687318731A627873121008D122000A7
:100EB6008D128631E52687310030F5008830F60040
:100EC6008731132787310030F5008830F6008731E7
:100ED6001327873103302000A4008A30A300563040
:100EE600A200A20B742FA30B742FA40B742F003235
:100EF6000030F5009030F600873113278731033034
:100F06002000A4008A30A3005630A200A20B892F2D
:100F1600A30B892FA40B892F00320030F5008C30EB
:100F2600F60087311327873103302000A4008A306A
:100F3600A3005630A200A20B9E2FA30B9E2FA40B3C
:100F46009E2F0032662F8631BA26873120000E1773
:100F56008E104130F300EE30F200F20BB02FF30B9F
:100F6600B02F000020000E178E140D12403086316F
:100F7600A4268731A1308631A4268731C030863138
:100F8600A4268731A6308631A4268731A230863141
:100F9600A42687312F308631A4268731F830863152
:100FA600A426873100308631A42687312730863142
:100FB600A426873181308631A426873110308631C8
:100FC600A4268731AC308631A4268731003086319D
:100FD600A4268731AF308631A42687310730F30047
:100FE6007D30F200F20BF52FF30BF52FAA30863188
:100FF600AF26080020008731522F00340034003419
:10100600003400340034003400340034003400343A
:10101600003400340034003400340034003400342A
:10102600003400340034003400340034003400341A
:10103600003400340034F034F034F034F034F0345A
:10104600F034F034F034F034F034F034F034F0347A
:10105600F034F034F034F034F034F034F034F0346A
:10106600F034F034F034F034F034F034F034F0345A
:10107600F034F034F034F034F034F034F034F0344A
:10108600F034F034F034F034F034F034F034F0343A
:10109600F034F034F034F03470343034303410340A
:1010A60010341034103410341034103430343034DA
:1010B60070347034F034F034F034F034F034F0340A
:1010C600003400340034003400340034003400347A
:1010D600003400340034003400340034003400346A
:1010E600003400340034003400340034003400345A
:1010F600003400340034003400340034003400344A
:101106000034003400340034003400340034003439
:101116000034003400340034003400340034003429
:101126000034003400340034003400340034003419
:10113600003400340034FF347F340F34073407346E
:10114600073407340734073407343F34FF34FF3499
:10115600FF34FF34FF34FF347F340F340734073451
:1011660003340134013400348034803480348034D4
:1011760080348034003401340134033407340734B6
:101186001F343F347F34FF34FF34FF34FF343F34A1
:101196000734033400340034003400340034C034DF
:1011A600F034F034F834F834F034E034C0348034B9
:1011B6000034003400340034013407341F347F34E3
:1011C6000034003400340034003400340034003479
:1011D6000034003400340034003400340034003469
:1011E6000034003400340034003400340034003459
:1011F6000034003400340034003400340034003449
:101206000034003400340034003400340034003438
:101216000034003400340034003400340034003428
:101226000034003400340034003400340034003418
:10123600003400340034E034E034E0340034003468
:101246000034003400340034003400340F34FF34EA
:10125600FF34FF34FF3403340034003400340034E8
:10126600003400340034FE34FF34FF34FF34FF34DE
:10127600FF34FF34FF34FC34F034003400340034DF
:1012860000340034003403340F34FF34FF340034A8
:101296000034003400340034003400340034FF34A9
:1012A600FF34FF34FF34FF34FF34FF34FF34FF34A0
:1012B600FC3480340034003400340034003400340C
:1012C6000034003400340034003400340034003478
:1012D6000034003400340034003400340034003468
:1012E6000034003400340034003400340034003458
:1012F6000034003400340034003400340034003448
:101306000034003400340034003400340034003437
:101316000034003400340034003400340034003427
:101326000034003400340034003400340034003417
:10133600003400340034FF34FF34FF34FF34E0342B
:1013460000340034003400340034003400340134F6
:101356007F34FF34FF34FC348034003400340034EE
:1013660000340034003407347F34FF34FF34FF3454
:10137600FF34FF34FF34FF34FF34003400340034CC
:10138600003400340034003400340134FF34FE34B9
:10139600E034803400340034003400340034013446
:1013A6001F343F34FF34FF34FF34FF34FF34FF343F
:1013B600FF343F3400340034003400340034003449
:1013C6000034003400340034003400340034003477
:1013D6000034003400340034003400340034003467
:1013E6000034003400340034003400340034003457
:1013F6000034003400340034003400340034003447
:101406000034003400340034003400340034003436
:101416000034003400340034003400340034003426
:101426000034003400340034003400340034003416
:10143600003400340034FF34FF34FF34FF34FF340B
:10144600F034003400340034003400340034003406
:1014560000341F34FF34FF34FF34F034E03480347A
:1014660000340034003400340034013407340F34BF
:101476000F340F340F340F340F340034003400347B
:10148600003400348034C034F034FF34FF34FF3489
:10149600FF34FF34FF34FC34F034E034C03480349D
:1014A6008034003400340034013401340134003413
:1014B6000034003480348034C034E034F034F834FE
:1014C6000034003400340034003400340034003476
:1014D6000034003400340034003400340034003466
:1014E6000034003400340034003400340034003456
:1014F6000034003400340034003400340034003446
:101506000034003400340034003400340034003435
:101516000034003400340034003400340034003425
:101526000034003400340034003400340034003415
:10153600003400340034FF34FF34FF34FF34FF340A
:10154600FF34FE34E034E034E034F034F034F03488
:10155600F034F034FF34FF34FF34FF34FF34FF340B
:10156600FF343F341E341C341C34183418341834F9
:10157600183438347834F834F8340C340C340634EF
:101586000E34873487348734073407340F341F34D6
:10159600FF34FF348F340734073403346334633441
:1015A60063344334F734FF34FF34FF34FF34FF34FD
:1015B600FF34FF34FF34FF34FF34FF34FF34FF348D
:1015C6000034003400340034003400340034003475
:1015D6000034003400340034003400340034003465
:1015E6000034003400340034003400340034003455
:1015F6000034003400340034003400340034003445
:101606000034003400340034003400340034003434
:101616000034003400340034003400340034003424
:101626000034003400340034003400340034003414
:10163600003400340034FF34FF34FF34FF34FF3409
:10164600FF34FF34FF34FF34FF34FF34FF34FF34FC
:10165600FF34FF34FF34FF34FF34FF34FF34FF34EC
:101666008F3403340234033401347134713420343A
:1016760000340034003401347F34E0340034003464
:1016860000340334FF34FF34F034003400340034C3
:101696000134BF34FF34DE3486348C348C348C34DD
:1016A60080348034C034C134F334FF34FF34FF3423
:1016B600FF34FF34FF34FF34FF34FF34FF34FF348C
:1016C6000034003400340034003400340034003474
:1016D6000034003400340034003400340034003464
:1016E6000034003400340034003400340034003454
:1016F6000034003400340034003400340034003444
:101706000034003400340034003400340034003433
:101716000034003400340034003400340034003423
:101726000034003400340034003400340034003413
:101736000034003400341F341F341F341F341F3468
:101746001F341F341F341F341F341F341F341F34FB
:101756001F341F341F341F341F341F341F341F34EB
:101766001F341E341E341C341C341C341C341E34EA
:101776001E341E341E341E341E341F341E341E34D2
:101786001E341E341F341F341F341F341F341F34BD
:101796001F341F341F341F341F341F341F341F34AB
:1017A6001F341F341F341F341F341F341F341F349B
:1017B6001F341F341F341F341F341F341F341F348B
:1017C6000034003400340034003400340034003473
:1017D6000034003400340034003400340034003463
:1017E6000034003400340034003400340034003453
:1017F6000034003400340034003400340034003443
:101806000034003400340034003400340034003432
:101816000034003400340034003400340034003422
:101826000034003400340034003400340034003412
:101836000034003400340034003400340034003402
:1018460000340034003400340034003400340034F2
:1018560000340034003400340034003400340034E2
:1018660000340034003400340034003400340034D2
:1018760000340034003400340034003400340034C2
:1018860000340034003400340034003400340034B2
:1018960000340034003400340034003400340034A2
:1018A6000034003400340034003400340034003492
:1018B6000034003400340034003400340034003482
:1018C6000034003400340034003400340034003472
:1018D6000034003400340034003400340034003462
:1018E6008034C034C0343034003400340034003422
:1018F6000034003400340034003400340034003442
:101906000034003400340034003400340034003431
:101916000034003400340034003400340034003421
:101926000034003400340034003400340034003411
:101936000034003400340034003400340034003401
:1019460000340034003400340034003400340034F1
:1019560000340034003400340034003400340034E1
:1019660000340034003400340034003400340034D1
:1019760000340034003400340034003400340034C1
:1019860000340034003400340034003400340034B1
:1019960000340034003400340034003400340034A1
:1019A6000034003400340034003400340034003491
:1019B6000034003400340034003400340034003481
:1019C600003400340034003400348034C034C03471
:1019D600C03460347034303418340C340E340E3461
:1019E600013401340034003400340034003400344F
:1019F6000034003400340034003400340034003441
:101A06000034003400340034003400340034003430
:101A160000340034003400340034FC34FC34003428
:101A260000340034FC343C34703470348034FC347C
:101A3600FC3400340034003400347C346C34CC3450
:101A460088340034003400340C34FC34FC340C3458
:101A560000340034FC34FC34FC34003400340C34E0
:101A66000C34FC340C340C34003400340034FC34B4
:101A7600003400340034FC340034003400340C34B8
:101A86000C34FC34FC340C340034003400340034A0
:101A96000034003400340834083408340834083478
:101AA60008340834183418341834183418341834F0
:101AB6001834183408340C340C340C340E340E3408
:101AC6000E340E3406340334033401340134013445
:101AD600013400340034003400340034003400345F
:101AE60000340034803480348034803480340034D0
:101AF6000034003400340034003400340034003440
:101B0600003400340034003400340034003400342F
:101B16000034003400340034003403340334003419
:101B26000034C03403340034C034C0340334833446
:101B36008334403440344034C23486340634063468
:101B4600C334C03440344034803403344334C03466
:101B5600C03440340334C334C334003400348034D6
:101B66008034433440344034C03480340034033449
:101B7600C234C63406340334C034C0340034C034EE
:101B8600C034433443344034003400340034003429
:101B9600003400340034C634C634C634C634C634C1
:101BA600C634C634C634C634C634C634C634C6345F
:101BB600C634C634C634C634C634C634C634C6344F
:101BC600C634C634C634C634C634C634C634C6343F
:101BD600C634C634C634C734C334C334C334C3343A
:101BE600C334C334C334C334C334C334C1340034FC
:101BF600003400340034003400340034003400343F
:101C0600003400340034003400340034003400342E
:101C160000340034003400341C341F34333423348D
:101C260013343F3400340034003400340F341F348E
:101C3600193420342034203430341F340F34003427
:101C46003F343F34023402340334003400343F342A
:101C56003F34003400341F343F3400340F341F3413
:101C66001934203424343C343C347F346F3400340B
:101C76001F343F34203420341F341F3400343F34A3
:101C86003F343234223422340034003400340034F9
:101C960000340034003430343034303430343034AE
:101CA600303430343034303430343034303430340E
:101CB60030343034303430343034303430343034FE
:101CC60030343034303430343034303430343034EE
:101CD60030343034303430343034303430343034DE
:101CE60030343034303430343034303430340034FE
:101CF600003400340034003400340034003400343E
:101D0600003400340034003400340034003400342D
:101D16000034003400340034003488348034003415
:101D2600003400340034003400342834F8340034ED
:101D360000340034003400340034583478348034AD
:101D46000034003400340034F8340034F8340034FD
:101D56000034003400340034F8348034083400345D
:101D6600003400340034C0347834E03400340034B5
:101D760000340034003408340034003400340034B5
:101D860000340034F8348034003400340034003435
:101D96000034003400349834803440340034003445
:101DA60000340034003400340034C83400340034C5
:101DB600003400340034F834003400340034003485
:101DC6000034003400340034F8348834703400347D
:101DD600003400340034003480348834F83400345D
:101DE6000034003400340034F83480348034003455
:101DF600003400340034003400340034003400343D
:101E0600003400340034003400340034003400342C
:101E1600003400340034003400340034003400341C
:101E2600003400340034003400340034003400340C
:101E360000340034003400340034003400340034FC
:101E460000340034003400340034003400340034EC
:101E560000340034003400340034003400340034DC
:101E660000340034003400340034003400340034CC
:101E760000340034003400340034003400340034BC
:101E860000340034003400340034003400340034AC
:101E9600003400340034E034203400342034E0349C
:101EA600E03480340034003400340034003400342C
:101EB600003480340034E03400340034803400349C
:101EC60000348034003400340034003400340034EC
:101ED600003400340034003400340034003400345C
:101EE600003400340034003400340034003400344C
:101EF600003400340034003400340034003400343C
:101F0600003400340034003400340034003400342B
:101F1600003400340034003400340034003400341B
:101F2600003400340034003400340034003400340B
:101F360000340034003400340034003400340034FB
:101F460000340034003400340034003400340034EB
:101F560000340034003400340034003400340034DB
:101F660000340034003400340034003400340034CB
:101F760000340034003400340034003400340034BB
:101F860000340034003400340034003400340034AB
:101F96000034003400340F34013401340134003489
:101FA60000340E34003400340F34003400340F345F
:101FB6000034003400340F340F3400340B3403344F
:101FC6000234063400340034003400340034023461
:101FD600073400340034013407340034003400344C
:101FE6000034003400340034003400340734003444
:101FF600003400340034003400340034003400343B
:102006000034003400340034FC34FC34FC34FC343A
:10201600FC3400340034003400340034003400341E
:102026000034003400340034FC34FC34FC34FC341A
:10203600FC343C341C341C341C341C341C341C341A
:102046001C3400340034003400348034803480344E
:1020560080348034803480348034803480348034DA
:10206600803400340034003400340034003400344A
:1020760080348034803480348034803480348034BA
:10208600803400340034003400340034FC34FC3432
:10209600FC34FC34FC341C341C341C341C341C341A
:1020A6001C341C341C340034003400340034003436
:1020B600003400340034003400340034003400347A
:1020C600003400340034003400340034003400346A
:1020D600003400340034003400340034003400345A
:1020E600003400340034003400340034003400344A
:1020F600003400340034003400340034003400343A
:102106000034003400340034FF34FF34FF34FF342D
:10211600FF3400340034003400340034003400341A
:102126000034003400340034FF34FF34FF34FF340D
:10213600FF340E340E340E340E340E340E340034A6
:1021460000340034003400340034FF34FF34FF34EC
:10215600FF34FF340334013401340334FF34FF34D5
:10216600FF34FF34FE3400340034003406341F34A8
:102176003F343F347F3479347134F134F334E3340B
:10218600E134C0340034003400340034FF34FF340A
:10219600FF34FF34FF340E340E340E340E340E3456
:1021A6000E3400340034003400340034003400347B
:1021B6000034003400340034003400340034003479
:1021C6000034003400340034003400340034003469
:1021D6000034003400340034003400340034003459
:1021E6000034003400340034003400340034003449
:1021F6000034003400340034003400340034003439
:1022060000340034003400340F340F340F340F34EC
:102216000F340E340E340E340E340E340E340E34A7
:102226000E340034003400340F340F340F340F34BE
:102236000F340E340E340E340E340E340E340E3487
:102246000E340E340034003400340F340F340F349F
:102256000F340F3400340034003400340F340F349C
:102266000F340F340F3400340034003404340F3488
:102276000E340E341E341C341E340F340F340F3417
:102286000734073400340034003400340F340F347C
:102296000F340F340F340E340E340E340E340E3425
:1022A6000E340E340E340E34003400340034003450
:1022B6000034003400340034003400340034003478
:1022C6000034003400340034003400340034003468
:1022D6000034003400340034003400340034003458
:1022E6000034003400340034003400340034003448
:1022F6000034003400340034003400340034003438
:1023060000340034003400340034FE34FE34FE342D
:10231600003400340034003400340034E034F8343F
:1023260038343834F834F834F0340034FC34FE34BD
:10233600FE34983418341834F034F034E034603411
:10234600F034F834983418341834F034F034003457
:102356000034F834F8341834183418348034F0342F
:10236600F83478347834F834F834E03400341834F7
:10237600FE34FE34183418340034F034F034F834B3
:10238600183418349834F834E0340034F234FE3417
:10239600FE3400340034F834F83418341834183461
:1023A6006034F034F834F834783478347034703477
:1023B6000034003400340034003400340034003477
:1023C6000034003400340034003400340034003467
:1023D6000034003400340034003400340034003457
:1023E6000034003400340034003400340034003447
:1023F6000034003400340034003400340034003437
:102406000034003400340034003401340134013423
:1024160001340134C134C13401340034C134C1340F
:1024260001340134C134C134C134C034C134C1347F
:10243600C134C13401340134013400340034003471
:1024460000340134013401340134013401340034E0
:1024560000340134013400340034003400340134D3
:1024660001340134013401340134C134C034003440
:1024760001340134013401340034003401340134B0
:1024860001340134013401340034003401340134A0
:102496000134003400340134013400340034003493
:1024A6000034003401340134013401340134003481
:1024B6000034003400340034003400340034003476
:1024C6000034003400340034003400340034003466
:1024D6000034003400340034003400340034003456
:1024E6000034003400348034C034C0340034003446
:1024F6000034003400340034003400340034003436
:1025060000340034003400341C343E343F34633429
:10251600633433343F343F340034003403340134FD
:10252600003400343F343F343634263426342034E5
:1025360020342034003400343F343F340334033431
:1025460003343F343E3400342034373427346F3478
:102556006B343B343A3400341C343F343F346B34F0
:102566006B342F342E34003400343F343F3400347F
:1025760000343E343E34E334E334F334FF34FF3482
:102586003E3400343F343F340734033403340734D5
:102596003E343E3400341C343F343F346B346B34A9
:1025A6003F342E34003400343F343F340334033494
:1025B6003F343F343F34033403343F343F343E34F6
:1025C60000341C343E343F346B346B346F342E3459
:1025D6000E3400343E343F343F34033403343F3446
:1025E6003F343C3400341F343F347F346334233467
:1025F6000034003400340034003400340034003435
:1026060000340034003400340034F834F834F8343C
:10261600D834D83418341834183400346034E034DC
:10262600C0348034C034E03460340034C034E03424
:10263600E034603460346034C034C0348034803474
:10264600C034E034603478347834C834C03400346C
:102656000034E034E0346034603460340034F834FC
:10266600F83400340034E034E034E034603460346C
:10267600E034C034E03460346134C134C0340034F2
:102686008034C034C034603460346034C034C03404
:1026960000340034E034E03460346034E034E03454
:1026A600803400346034F034F834F8346034003464
:1026B60000344034603460346034E034E0348034D4
:1026C6000034F034F834F834003400340034003484
:1026D6000034003400340034003400340034003454
:1026E6000034003400340034003400340034003444
:1026F6000034003400340034003400340034003434
:10270600003400340034003400340734073407340E
:1027160004340434043404340434003404340634F5
:102726000734033407340634043400341F341F34AA
:102736001F340434043404340734073403340134B6
:1027460007340734053405340534053401340034C0
:1027560000340734073400340034003400340734BE
:1027660007340034003407340734003400340034AE
:102776000734073407340034003407340734003490
:10278600013403340734073405340534053405347D
:102796000034003407340734003400340734073477
:1027A6000734003400340734073407340434003463
:1027B6000634073405340534053407340734073442
:1027C600003407340734073400340034003400344E
:1027D6000034003400340034003400340034003453
:1027E6000034003400340034003400340034003443
:0A27F60000340034003400340034D5
:020000040001F9
:04000E00A4F9FFDD75
:00000001FF
