:020000040000FA
:020000001D28B9
:100008007E1480310B1D09280A281B2803102000A4
:100018000C1C031403181128142820000C1416288B
:1000280020000C10503095000B111B281B287E1047
:1000380009001E28F001F1017E102000232823006A
:100048008C0121008C1220008C1621000C100C163B
:100058008530890B2D2800008031452080313328D8
:100068001D28103416341B341E341F341E341B3420
:10007800163410340A34053402340034023405349A
:100088000A3421009917FC30990519088739703806
:0E0098009900951295150B118B168B17080009
:020000040001F9
:04000E00BCFFFFFF35
:00000001FF
