:020000040000fa
:080000000001040000000000f3
:020000040000fa
:0400080044020000ae
:020000040000fa
:04000c0044020000aa
:020000040000fa
:0400100044020000a6
:020000040000fa
:0400140044020000a2
:020000040000fa
:04001800440200009e
:020000040000fa
:04001c00440200009a
:020000040000fa
:040020004402000096
:020000040000fa
:040024004402000092
:020000040000fa
:04002800440200008e
:020000040000fa
:04002c00440200008a
:020000040000fa
:040030004402000086
:020000040000fa
:04003400c8010000ff
:020000040000fa
:04003800440200007e
:020000040000fa
:04003c00440200007a
:020000040000fa
:040040004402000076
:020000040000fa
:040044004402000072
:020000040000fa
:04004800440200006e
:020000040000fa
:04004c00440200006a
:020000040000fa
:040050004402000066
:020000040000fa
:040054004402000062
:020000040000fa
:04005800440200005e
:020000040000fa
:04005c00440200005a
:020000040000fa
:040060004402000056
:020000040000fa
:040064004402000052
:020000040000fa
:04006800440200004e
:020000040000fa
:04006c00440200004a
:020000040000fa
:040070004402000046
:020000040000fa
:040074004402000042
:020000040000fa
:04007800440200003e
:020000040000fa
:04007c00440200003a
:020000040000fa
:040080004402000036
:020000040000fa
:040084004402000032
:020000040000fa
:04008800440200002e
:020000040000fa
:04008c00440200002a
:020000040000fa
:040090004402000026
:020000040000fa
:040094004402000022
:020000040000fa
:04009800440200001e
:020000040000fa
:04009c00440200001a
:020000040000fa
:0400a0004402000016
:020000040000fa
:0400a4004402000012
:020000040000fa
:0400a800440200000e
:020000040000fa
:0400ac00440200000a
:020000040000fa
:0400b0004402000006
:020000040000fa
:0400b4004402000002
:020000040000fa
:0400b80044020000fe
:020000040000fa
:0400bc0044020000fa
:020000040000fa
:0400c00044020000f6
:020000040000fa
:0400c40044020000f2
:020000040000fa
:0400c80044020000ee
:020000040000fa
:0400cc0044020000ea
:020000040000fa
:0400d00044020000e6
:020000040000fa
:0400d40044020000e2
:020000040000fa
:0400d80044020000de
:020000040000fa
:0401080044020000ad
:020000040000fa
:04010c0044020000a9
:020000040000fa
:0401100044020000a5
:020000040000fa
:0401140044020000a1
:020000040000fa
:04011800440200009d
:020000040000fa
:04011c004402000099
:020000040000fa
:040120004402000095
:020000040000fa
:040124004402000091
:020000040000fa
:04012800440200008d
:020000040000fa
:04012c004402000089
:020000040000fa
:040130004402000085
:020000040000fa
:040134004402000081
:020000040000fa
:04013800440200007d
:020000040000fa
:04013c004402000079
:020000040000fa
:040140004402000075
:020000040000fa
:040144004402000071
:020000040000fa
:04014800440200006d
:020000040000fa
:04014c004402000069
:020000040000fa
:040150004402000065
:020000040000fa
:040154004402000061
:020000040000fa
:04015800440200005d
:020000040000fa
:04015c004402000059
:020000040000fa
:040160004402000055
:020000040000fa
:040164004402000051
:020000040000fa
:04016800440200004d
:020000040000fa
:04016c004402000049
:020000040000fa
:040170004402000045
:020000040000fa
:040174004402000041
:020000040000fa
:04017800440200003d
:020000040000fa
:04017c004402000039
:020000040000fa
:040180004402000035
:020000040000fa
:040184004402000031
:020000040000fa
:04018800440200002d
:020000040000fa
:04018c004402000029
:020000040000fa
:040190004402000025
:020000040000fa
:040194004402000021
:020000040000fa
:04019800440200001d
:020000040000fa
:04019c004402000019
:020000040000fa
:0401a0004402000015
:020000040000fa
:0401a4004402000011
:020000040000fa
:0401a800440200000d
:020000040000fa
:0401ac004402000009
:020000040000fa
:0401b0004402000005
:020000040000fa
:0401b4004402000001
:020000040000fa
:0401b80044020000fd
:020000040000fa
:0401bc0044020000f9
:020000040000fa
:0401c00044020000f5
:020000040000fa
:0401c40044020000f1
:020000040000fa
:0401c80044020000ed
:020000040000fa
:0401cc0044020000e9
:020000040000fa
:0401d00044020000e5
:020000040000fa
:0401d40044020000e1
:020000040000fa
:0401d80044020000dd
:020000040000fa
:100200006f8020000eef20000e018800000000002b
:10021000000020000000e000020032000001200089
:100220002002880014000700990007000000e00089
:1002300003003a00e03a20000100200002003700ed
:100240000000200001002000810f7000010032003a
:1002500014000700000020000000e000020032004f
:100260000000020000000000a403020000000000e3
:100270000040da000000fe004440a9000000200019
:100280000000e0000300320000002000a001880010
:100290004440a800000006008a1f78008b1f7800e9
:1002a0000000060091018800800478000000eb0047
:1002b0001a003700e284440032a0b4009905ba0065
:1002c000e284440032a0b4009906ba00e2844400fb
:1002d00032a0b4000006eb00476fde00fd07b2005d
:1002e000636ce10003003a00ebff07000000eb0045
:1002f0000a003700606ce10004003a00005deb008a
:100300008b05e900fdff3e00040037006168e10055
:10031000010032000086eb000b00070019c7ba008d
:100320001905ba000e04e00003003a000a00e000dc
:10033000e0ff3a0000000600fe07b2009e018800c0
:100340008a047800f5ff3700395dba008b05e900b3
:100350000c003200295dba008b05e900080032006c
:100360000c00e00003003a00e284440032a0b40034
:10037000f5ff370019ddba008b05e900faff3a00f6
:100380008904e800e184440032a0b40000000600c3
:100390003600f800809fbe00829fbe00849fbe0092
:1003a000869fbe003400f80000002000a0018800f5
:1003b0000000fa00101780006100600000f0a70044
:1003c0000000ea000000e9004f00de000040780075
:1003d0000080fb006100600012178000e1ff2f0029
:1003e0008100610001007000101788003c000700c8
:1003f00000408800a0168000680060000000e00057
:10040000110032000140800000802f000080400079
:10041000004088001300200042802000018020005e
:1004200000f8200036010700204080000000400056
:100430002040880021408000008020000080400093
:1004400020408800050037000040800020408800e0
:1004500020408000000040002040880020408000b4
:100460004f0007008460a9000080fa003400f90002
:100470004f03be004f02be004f01be004f00be0042
:100480003600f900004006000040da000000fe00df
:040490000000050063
:020000040000fa
:100494000000fa002022ef00000220001011880062
:1004a4001111800030fe2f00008060004001b30075
:1004b4001011880011118000c0ff2f00008060001f
:1004c4000010a000101188008500a9008d00a9006b
:1004d40021e2a8000080fa00000006000600fa00ed
:1004e4000000eb00000f7800cb62a900201180000f
:1004f4002047980020c2a9008500a9002422ef000b
:100504000000000021048000001020000080600032
:100514000000e000fbff3200cb62a900cb62a9001f
:10052400201180003047980020c2a9008500a9004e
:100534002422ef00000000002104800000102000ad
:10054400008060000000e000fbff3200cb62a900e5
:10055400cb62a9002011800040479800cb62a8001c
:100564003e4090008000fb00f0032000008060000b
:100574004600dd00000f78004e4090008000fb0034
:10058400c00f2000008060004280de001e0f40008b
:100594001e0078000080fa00000006000600fa0041
:1005a40020079800ae00900000f02000008060005a
:1005b4004880de00004078000043b000004f78001f
:1005c4002e00900010479800d702a900d702a90076
:1005d400201180002047980020c2a9008500a900ae
:1005e4001e00fb0020118800000000002104800090
:1005f40000102000008060000000e000fbff3200db
:10060400d702a900201180002047980020c2a90029
:100614008500a9001e4090000000fb002011880006
:100624000000000021048000001020000080600011
:100634000000e000fbff3200d702a800d642a90068
:10064400d642a900d642a8000080fa0000000600a5
:100654000000fa00a10480000000270001007000df
:10066400a00488008c60a9008460a900210880008f
:10067400f0fc2f0000806000200888000421a900fd
:1006840005a1a90004c1a900d05f200010088800ba
:10069400805c20001008880005e1a8008c60a80098
:1006a4000080fa00000006000000fa00113a800001
:1006b400f0ff28000080600000c0a000103a88000d
:1006c400113a8000f08f2f00008060000080a000ad
:1006d400103a88004427ef00de02a900d262a80085
:1006e400de42a800de62a900dec2a900d302a9008e
:1006f400d242a900d702a800d642a800c762a90026
:10070400cb62a800c742a800c602a800c622a8005f
:100714000080eb0040158800a922a900aa22ef005e
:10072400ab22a80000f82000ab00070081e0a9007c
:100734008c60a8000028ef000428ef000080fa0075
:10074400000006000000fa00d7ff070050ff070072
:08075400bfff0700ffff3700a3
:020000040000fa
:10075c00800f00000e0000000200000023000000cb
:10076c0084458400000000000f450f00000f0000be
:10077c00000f0000800000000000000000080000d6
:0c078c000600000000000000000000005b
:020000040000fa
:1008000063ff0000e8fe000024ff0000000000007d
:100810009a000000350000006cff0000000000009e
:10082000e5020000480600002c0600000000000061
:100830002cf60000afef0000fdf200000000000009
:10084000de0e000060150000de0e0000000000005b
:10085000fdf20000afef00002cf6000000000000e9
:100860002c06000048060000e50200000000000021
:100870006cff0000350000009a000000000000003e
:1008800024ff0000e8fe000063ff000000000000fd
:100890000000000000000000000000000000000058
:1008a0000000000000000000000000000000000048
:1008b0000000000000000000000000000000000038
:1008c0000000000000000000000000000000000028
:1008d0000000000000000000000000000000000018
:1008e0000000000000000000000000000000000008
:1008f00000000000000000000000000000000000f8
:020000040000fa
:100900004600f800881f78008a1f78004800f80029
:100910004a00f8004c00f8004e00f8004400f800cf
:100920003400f8003005900008f02f000a40e10084
:1009300003003200480b2000aa01880001003700a4
:10094000080b20002802880020049000580288002c
:100950001004900048028800500590007a02880038
:10096000400590006a028800000290006302520075
:100970008a0a2c003a0288008301e9006005900091
:100980000380080006000000310d78004618c300ff
:10099000048009004618c4004218c4001201c400b3
:1009a0003200cd006a0098004620ef0000000000f1
:1009b0003400f9004400f9004e00f9004c00f90041
:1009c0004a00f9004800f9004f0578004f0478000c
:1009d0004600f9000000000000000600c000900082
:1009e000000090000000e900008009008018eb0082
:0409f00000000600fd
:020000040000fa
:0200000401f009
:04000000e3bf00005a
:020000040000fa
:0200000401f009
:04000400ff7f00007a
:020000040000fa
:0200000401f009
:04000800fc7f000079
:020000040000fa
:0200000401f009
:04001400ffff0000ea
:020000040000fa
:0200000401f009
:04001800ffff0000e6
:00000001FF
